:100000000C945C000C946E000C946E000C946E00CA
:100010000C946E000C946E000C946E000C946E00A8
:100020000C946E000C946E000C946E000C946E0098
:100030000C946E000C946E000C946E000C946E0088
:100040000C94D5000C946E000C946E000C946E0011
:100050000C946E000C946E000C946E000C946E0068
:100060000C946E000C946E00000000080002010069
:100070000003040700000000000000000000000072
:10008000250028002B0000000000240027002A0083
:10009000040404040404040402020202020203032E
:1000A0000303030301020408102040800102040836
:1000B000102001020408102011241FBECFEFD8E049
:1000C000DEBFCDBF21E0A0E0B1E001C01D92AF31A5
:1000D000B207E1F70E941F010C9472020C94000019
:1000E00090E0FC01EC55FF4F2491FC01E057FF4FDD
:1000F0008491882399F090E0880F991FFC01EA57BA
:10010000FF4FA591B491FC01E458FF4F8591949164
:100110008FB7F894EC91E22BEC938FBF089590E0A9
:10012000FC01E859FF4F2491FC01EC55FF4F34913D
:10013000FC01E057FF4FE491EE23B1F1222339F1A6
:10014000233091F038F42130A9F0223001F584B544
:100150008F7D12C0273091F02830A1F02430B9F4FF
:10016000809180008F7D03C0809180008F77809385
:1001700080000DC084B58F7784BD09C08091B00028
:100180008F7703C08091B0008F7D8093B000F0E046
:10019000EE0FFF1FE458FF4FA591B4918FB7F8946D
:1001A000EC913E2B3C938FBF08951F920F920FB698
:1001B0000F9211242F933F938F939F93AF93BF93ED
:1001C0008091050190910601A0910701B09108016D
:1001D0003091040123E0230F2D3720F40196A11D57
:1001E000B11D05C026E8230F0296A11DB11D209365
:1001F00004018093050190930601A0930701B09339
:1002000008018091000190910101A0910201B0913B
:1002100003010196A11DB11D80930001909301017E
:10022000A0930201B0930301BF91AF919F918F9171
:100230003F912F910F900FBE0F901F9018957894BB
:1002400084B5826084BD84B5816084BD85B58260DB
:1002500085BD85B5816085BD80916E00816080938C
:100260006E001092810080918100826080938100F5
:100270008091810081608093810080918000816005
:10028000809380008091B10084608093B100809160
:10029000B00081608093B00080917A008460809388
:1002A0007A0080917A00826080937A0080917A004F
:1002B000816080937A0080917A00806880937A00D0
:1002C0001092C10084E00E94700085E00E947000DE
:1002D00086E00E94700087E00E9470002FB7F894BB
:1002E0008091050190910601A0910701B09108014C
:1002F0002FBF90931E0180931D0190931C0180934A
:100300001B0100E010E0C1E08FB7F894C090050138
:10031000D0900601E0900701F09008018FBFD092C5
:100320001E01C0921D0180911B0190911C0196013C
:10033000281B390B283E334084F02091190130915D
:100340001A012F5F3F4F30931A01209319018851F2
:100350009C4F90931C0180931B01809119019091F7
:100360001A01CC9769F410921A0110921901809128
:10037000170190911801019690931801809317012D
:100380008091170190911801CC9769F4109218018F
:10039000109217018091150190911601019690938A
:1003A00016018093150180911501909116014897CF
:1003B00021F41092160110921501809114018111FF
:1003C00018C080911501909116018A30910539F479
:1003D0008091170190911801892B59F408C040971A
:1003E00041F480911701909118014E9711F4C09338
:1003F000140180911301811111C080911501909118
:1004000016018930910511F0419741F4809117014F
:1004100090911801892B11F4C0931301809112015E
:10042000811118C0809115019091160189309105B4
:1004300039F480911701909118014E9759F408C032
:10044000439741F48091170190911801892B11F481
:10045000C093120180911101811111C08091150189
:10046000909116018730910511F0449741F48091E5
:10047000170190911801892B11F4C09311018091FB
:100480001401882339F084E00E948F00D09210017B
:10049000C0920F0180911301882339F085E00E94FA
:1004A0008F00D0920E01C0920D018091120188231D
:1004B00039F086E00E948F00D0920C01C0920B01AF
:1004C00080911101882339F087E00E948F00D0923B
:1004D0000A01C09209010115110509F415CF0E9406
:0804E000000012CFF894FFCFD9
:00000001FF
